{
  "contractName": "evoting",
  "abi": [
    {
      "inputs": [
        {
          "internalType": "string",
          "name": "fname",
          "type": "string"
        },
        {
          "internalType": "string",
          "name": "lname",
          "type": "string"
        },
        {
          "internalType": "string",
          "name": "email",
          "type": "string"
        },
        {
          "internalType": "uint256",
          "name": "dob",
          "type": "uint256"
        },
        {
          "internalType": "string",
          "name": "mobile",
          "type": "string"
        },
        {
          "internalType": "string",
          "name": "uidai",
          "type": "string"
        }
      ],
      "stateMutability": "nonpayable",
      "type": "constructor"
    },
    {
      "anonymous": false,
      "inputs": [
        {
          "components": [
            {
              "internalType": "string",
              "name": "representative",
              "type": "string"
            },
            {
              "internalType": "string",
              "name": "description",
              "type": "string"
            },
            {
              "internalType": "string",
              "name": "teamName",
              "type": "string"
            },
            {
              "internalType": "uint256",
              "name": "voteCount",
              "type": "uint256"
            }
          ],
          "indexed": false,
          "internalType": "struct evoting.Team",
          "name": "_team",
          "type": "tuple"
        }
      ],
      "name": "AddTeam",
      "type": "event"
    },
    {
      "anonymous": false,
      "inputs": [
        {
          "components": [
            {
              "internalType": "address",
              "name": "id",
              "type": "address"
            },
            {
              "internalType": "string",
              "name": "fname",
              "type": "string"
            },
            {
              "internalType": "string",
              "name": "lname",
              "type": "string"
            },
            {
              "internalType": "string",
              "name": "email",
              "type": "string"
            },
            {
              "internalType": "uint256",
              "name": "dob",
              "type": "uint256"
            },
            {
              "internalType": "string",
              "name": "mobile",
              "type": "string"
            },
            {
              "internalType": "string",
              "name": "uidai",
              "type": "string"
            },
            {
              "internalType": "string",
              "name": "role",
              "type": "string"
            },
            {
              "internalType": "bool",
              "name": "verified",
              "type": "bool"
            },
            {
              "internalType": "bool",
              "name": "voted",
              "type": "bool"
            },
            {
              "internalType": "uint256",
              "name": "vote",
              "type": "uint256"
            }
          ],
          "indexed": false,
          "internalType": "struct evoting.Voter",
          "name": "_voter",
          "type": "tuple"
        }
      ],
      "name": "AddVoter",
      "type": "event"
    },
    {
      "anonymous": false,
      "inputs": [
        {
          "components": [
            {
              "internalType": "address",
              "name": "id",
              "type": "address"
            },
            {
              "internalType": "string",
              "name": "fname",
              "type": "string"
            },
            {
              "internalType": "string",
              "name": "lname",
              "type": "string"
            },
            {
              "internalType": "string",
              "name": "email",
              "type": "string"
            },
            {
              "internalType": "uint256",
              "name": "dob",
              "type": "uint256"
            },
            {
              "internalType": "string",
              "name": "mobile",
              "type": "string"
            },
            {
              "internalType": "string",
              "name": "uidai",
              "type": "string"
            },
            {
              "internalType": "string",
              "name": "role",
              "type": "string"
            },
            {
              "internalType": "bool",
              "name": "verified",
              "type": "bool"
            },
            {
              "internalType": "bool",
              "name": "voted",
              "type": "bool"
            },
            {
              "internalType": "uint256",
              "name": "vote",
              "type": "uint256"
            }
          ],
          "indexed": false,
          "internalType": "struct evoting.Voter",
          "name": "_voter",
          "type": "tuple"
        }
      ],
      "name": "Register",
      "type": "event"
    },
    {
      "anonymous": false,
      "inputs": [
        {
          "indexed": false,
          "internalType": "string",
          "name": "_message",
          "type": "string"
        }
      ],
      "name": "VerifyVoter",
      "type": "event"
    },
    {
      "anonymous": false,
      "inputs": [
        {
          "components": [
            {
              "internalType": "address",
              "name": "id",
              "type": "address"
            },
            {
              "internalType": "string",
              "name": "fname",
              "type": "string"
            },
            {
              "internalType": "string",
              "name": "lname",
              "type": "string"
            },
            {
              "internalType": "string",
              "name": "email",
              "type": "string"
            },
            {
              "internalType": "uint256",
              "name": "dob",
              "type": "uint256"
            },
            {
              "internalType": "string",
              "name": "mobile",
              "type": "string"
            },
            {
              "internalType": "string",
              "name": "uidai",
              "type": "string"
            },
            {
              "internalType": "string",
              "name": "role",
              "type": "string"
            },
            {
              "internalType": "bool",
              "name": "verified",
              "type": "bool"
            },
            {
              "internalType": "bool",
              "name": "voted",
              "type": "bool"
            },
            {
              "internalType": "uint256",
              "name": "vote",
              "type": "uint256"
            }
          ],
          "indexed": false,
          "internalType": "struct evoting.Voter",
          "name": "_voter",
          "type": "tuple"
        }
      ],
      "name": "Vote",
      "type": "event"
    },
    {
      "inputs": [
        {
          "internalType": "uint256",
          "name": "",
          "type": "uint256"
        }
      ],
      "name": "teams",
      "outputs": [
        {
          "internalType": "string",
          "name": "representative",
          "type": "string"
        },
        {
          "internalType": "string",
          "name": "description",
          "type": "string"
        },
        {
          "internalType": "string",
          "name": "teamName",
          "type": "string"
        },
        {
          "internalType": "uint256",
          "name": "voteCount",
          "type": "uint256"
        }
      ],
      "stateMutability": "view",
      "type": "function",
      "constant": true
    },
    {
      "inputs": [
        {
          "internalType": "string",
          "name": "representative",
          "type": "string"
        },
        {
          "internalType": "string",
          "name": "description",
          "type": "string"
        },
        {
          "internalType": "string",
          "name": "teamName",
          "type": "string"
        }
      ],
      "name": "addTeam",
      "outputs": [],
      "stateMutability": "nonpayable",
      "type": "function"
    },
    {
      "inputs": [
        {
          "internalType": "string",
          "name": "fname",
          "type": "string"
        },
        {
          "internalType": "string",
          "name": "lname",
          "type": "string"
        },
        {
          "internalType": "string",
          "name": "email",
          "type": "string"
        },
        {
          "internalType": "uint256",
          "name": "dob",
          "type": "uint256"
        },
        {
          "internalType": "string",
          "name": "mobile",
          "type": "string"
        },
        {
          "internalType": "string",
          "name": "uidai",
          "type": "string"
        }
      ],
      "name": "register",
      "outputs": [],
      "stateMutability": "nonpayable",
      "type": "function"
    },
    {
      "inputs": [],
      "name": "getTeams",
      "outputs": [
        {
          "components": [
            {
              "internalType": "string",
              "name": "representative",
              "type": "string"
            },
            {
              "internalType": "string",
              "name": "description",
              "type": "string"
            },
            {
              "internalType": "string",
              "name": "teamName",
              "type": "string"
            },
            {
              "internalType": "uint256",
              "name": "voteCount",
              "type": "uint256"
            }
          ],
          "internalType": "struct evoting.Team[]",
          "name": "",
          "type": "tuple[]"
        }
      ],
      "stateMutability": "view",
      "type": "function",
      "constant": true
    },
    {
      "inputs": [],
      "name": "getVoter",
      "outputs": [
        {
          "components": [
            {
              "internalType": "address",
              "name": "id",
              "type": "address"
            },
            {
              "internalType": "string",
              "name": "fname",
              "type": "string"
            },
            {
              "internalType": "string",
              "name": "lname",
              "type": "string"
            },
            {
              "internalType": "string",
              "name": "email",
              "type": "string"
            },
            {
              "internalType": "uint256",
              "name": "dob",
              "type": "uint256"
            },
            {
              "internalType": "string",
              "name": "mobile",
              "type": "string"
            },
            {
              "internalType": "string",
              "name": "uidai",
              "type": "string"
            },
            {
              "internalType": "string",
              "name": "role",
              "type": "string"
            },
            {
              "internalType": "bool",
              "name": "verified",
              "type": "bool"
            },
            {
              "internalType": "bool",
              "name": "voted",
              "type": "bool"
            },
            {
              "internalType": "uint256",
              "name": "vote",
              "type": "uint256"
            }
          ],
          "internalType": "struct evoting.Voter",
          "name": "",
          "type": "tuple"
        }
      ],
      "stateMutability": "view",
      "type": "function",
      "constant": true
    },
    {
      "inputs": [
        {
          "internalType": "uint256",
          "name": "to",
          "type": "uint256"
        }
      ],
      "name": "vote",
      "outputs": [],
      "stateMutability": "nonpayable",
      "type": "function"
    },
    {
      "inputs": [],
      "name": "getUnverifiedVoter",
      "outputs": [
        {
          "components": [
            {
              "internalType": "address",
              "name": "id",
              "type": "address"
            },
            {
              "internalType": "string",
              "name": "fname",
              "type": "string"
            },
            {
              "internalType": "string",
              "name": "lname",
              "type": "string"
            },
            {
              "internalType": "string",
              "name": "email",
              "type": "string"
            },
            {
              "internalType": "uint256",
              "name": "dob",
              "type": "uint256"
            },
            {
              "internalType": "string",
              "name": "mobile",
              "type": "string"
            },
            {
              "internalType": "string",
              "name": "uidai",
              "type": "string"
            },
            {
              "internalType": "string",
              "name": "role",
              "type": "string"
            },
            {
              "internalType": "bool",
              "name": "verified",
              "type": "bool"
            },
            {
              "internalType": "bool",
              "name": "voted",
              "type": "bool"
            },
            {
              "internalType": "uint256",
              "name": "vote",
              "type": "uint256"
            }
          ],
          "internalType": "struct evoting.Voter[]",
          "name": "",
          "type": "tuple[]"
        }
      ],
      "stateMutability": "view",
      "type": "function",
      "constant": true
    },
    {
      "inputs": [
        {
          "internalType": "address",
          "name": "_address",
          "type": "address"
        }
      ],
      "name": "verifyVoter",
      "outputs": [],
      "stateMutability": "nonpayable",
      "type": "function"
    },
    {
      "inputs": [],
      "name": "getWinner",
      "outputs": [
        {
          "components": [
            {
              "internalType": "string",
              "name": "representative",
              "type": "string"
            },
            {
              "internalType": "string",
              "name": "description",
              "type": "string"
            },
            {
              "internalType": "string",
              "name": "teamName",
              "type": "string"
            },
            {
              "internalType": "uint256",
              "name": "voteCount",
              "type": "uint256"
            }
          ],
          "internalType": "struct evoting.Team",
          "name": "_winner",
          "type": "tuple"
        }
      ],
      "stateMutability": "view",
      "type": "function",
      "constant": true
    }
  ],
  "bytecode": "0x60806040523480156200001157600080fd5b5060405162003eea38038062003eea8339818101604052810190620000379190620008b0565b33600460006101000a81548173ffffffffffffffffffffffffffffffffffffffff021916908373ffffffffffffffffffffffffffffffffffffffff1602179055506000604051806101600160405280600460009054906101000a900473ffffffffffffffffffffffffffffffffffffffff1673ffffffffffffffffffffffffffffffffffffffff1681526020018881526020018781526020018681526020018581526020018481526020018381526020016040518060400160405280600581526020017f61646d696e00000000000000000000000000000000000000000000000000000081525081526020016001151581526020016000151581526020016000815250905062000170600460009054906101000a900473ffffffffffffffffffffffffffffffffffffffff16826200017d60201b60201c565b5050505050505062000a4c565b600060030160008373ffffffffffffffffffffffffffffffffffffffff1673ffffffffffffffffffffffffffffffffffffffff16815260200190815260200160002060009054906101000a900460ff1615620003775780600060010160008473ffffffffffffffffffffffffffffffffffffffff1673ffffffffffffffffffffffffffffffffffffffff16815260200190815260200160002060008201518160000160006101000a81548173ffffffffffffffffffffffffffffffffffffffff021916908373ffffffffffffffffffffffffffffffffffffffff16021790555060208201518160010190805190602001906200027b92919062000628565b5060408201518160020190805190602001906200029a92919062000628565b506060820151816003019080519060200190620002b992919062000628565b506080820151816004015560a0820151816005019080519060200190620002e292919062000628565b5060c08201518160060190805190602001906200030192919062000628565b5060e08201518160070190805190602001906200032092919062000628565b506101008201518160080160006101000a81548160ff0219169083151502179055506101208201518160080160016101000a81548160ff021916908315150217905550610140820151816009015590505062000624565b6001600060030160008473ffffffffffffffffffffffffffffffffffffffff1673ffffffffffffffffffffffffffffffffffffffff16815260200190815260200160002060006101000a81548160ff02191690831515021790555080600060010160008473ffffffffffffffffffffffffffffffffffffffff1673ffffffffffffffffffffffffffffffffffffffff16815260200190815260200160002060008201518160000160006101000a81548173ffffffffffffffffffffffffffffffffffffffff021916908373ffffffffffffffffffffffffffffffffffffffff16021790555060208201518160010190805190602001906200047a92919062000628565b5060408201518160020190805190602001906200049992919062000628565b506060820151816003019080519060200190620004b892919062000628565b506080820151816004015560a0820151816005019080519060200190620004e192919062000628565b5060c08201518160060190805190602001906200050092919062000628565b5060e08201518160070190805190602001906200051f92919062000628565b506101008201518160080160006101000a81548160ff0219169083151502179055506101208201518160080160016101000a81548160ff02191690831515021790555061014082015181600901559050506000800180549050600060020160008473ffffffffffffffffffffffffffffffffffffffff1673ffffffffffffffffffffffffffffffffffffffff1681526020019081526020016000208190555060008001829080600181540180825580915050600190039060005260206000200160009091909190916101000a81548173ffffffffffffffffffffffffffffffffffffffff021916908373ffffffffffffffffffffffffffffffffffffffff1602179055505b5050565b828054620006369062000a16565b90600052602060002090601f0160209004810192826200065a5760008555620006a6565b82601f106200067557805160ff1916838001178555620006a6565b82800160010185558215620006a6579182015b82811115620006a557825182559160200191906001019062000688565b5b509050620006b59190620006b9565b5090565b5b80821115620006d4576000816000905550600101620006ba565b5090565b6000604051905090565b600080fd5b600080fd5b600080fd5b600080fd5b6000601f19601f8301169050919050565b7f4e487b7100000000000000000000000000000000000000000000000000000000600052604160045260246000fd5b6200074182620006f6565b810181811067ffffffffffffffff8211171562000763576200076262000707565b5b80604052505050565b600062000778620006d8565b905062000786828262000736565b919050565b600067ffffffffffffffff821115620007a957620007a862000707565b5b620007b482620006f6565b9050602081019050919050565b60005b83811015620007e1578082015181840152602081019050620007c4565b83811115620007f1576000848401525b50505050565b60006200080e62000808846200078b565b6200076c565b9050828152602081018484840111156200082d576200082c620006f1565b5b6200083a848285620007c1565b509392505050565b600082601f8301126200085a5762000859620006ec565b5b81516200086c848260208601620007f7565b91505092915050565b6000819050919050565b6200088a8162000875565b81146200089657600080fd5b50565b600081519050620008aa816200087f565b92915050565b60008060008060008060c08789031215620008d057620008cf620006e2565b5b600087015167ffffffffffffffff811115620008f157620008f0620006e7565b5b620008ff89828a0162000842565b965050602087015167ffffffffffffffff811115620009235762000922620006e7565b5b6200093189828a0162000842565b955050604087015167ffffffffffffffff811115620009555762000954620006e7565b5b6200096389828a0162000842565b94505060606200097689828a0162000899565b935050608087015167ffffffffffffffff8111156200099a5762000999620006e7565b5b620009a889828a0162000842565b92505060a087015167ffffffffffffffff811115620009cc57620009cb620006e7565b5b620009da89828a0162000842565b9150509295509295509295565b7f4e487b7100000000000000000000000000000000000000000000000000000000600052602260045260246000fd5b6000600282049050600182168062000a2f57607f821691505b6020821081141562000a465762000a45620009e7565b5b50919050565b61348e8062000a5c6000396000f3fe608060405234801561001057600080fd5b50600436106100935760003560e01c806388018f7f1161006657806388018f7f146101215780638e7ea5b21461013f578063b738ddb11461015d578063f4ec521e14610179578063fa256f5f1461019757610093565b80630121b93f1461009857806309bd0950146100b45780632b37f53c146100d05780633ed2b77a146100ee575b600080fd5b6100b260048036038101906100ad919061228c565b6101b3565b005b6100ce60048036038101906100c99190612317565b610339565b005b6100d8610464565b6040516100e59190612528565b60405180910390f35b6101086004803603810190610103919061228c565b6108cb565b60405161011894939291906125a3565b60405180910390f35b610129610aa3565b60405161013691906127d1565b60405180910390f35b6101476114e1565b6040516101549190612864565b60405180910390f35b610177600480360381019061017291906129bb565b61172b565b005b61018161181d565b60405161018e9190612c07565b60405180910390f35b6101b160048036038101906101ac9190612c29565b611a3c565b005b60008060010160003373ffffffffffffffffffffffffffffffffffffffff1673ffffffffffffffffffffffffffffffffffffffff16815260200190815260200160002090508060080160009054906101000a900460ff16610249576040517f08c379a000000000000000000000000000000000000000000000000000000000815260040161024090612d42565b60405180910390fd5b8060080160019054906101000a900460ff161561029b576040517f08c379a000000000000000000000000000000000000000000000000000000000815260040161029290612dae565b60405180910390fd5b60018160080160016101000a81548160ff0219169083151502179055508181600901819055506001600583815481106102d7576102d6612dce565b5b906000526020600020906004020160030160008282546102f79190612e2c565b925050819055507fe417a8c77fba553404f6a9df0729af9ee91934d749c839a3d6074aeffabea5af8160405161032d919061316c565b60405180910390a15050565b600460009054906101000a900473ffffffffffffffffffffffffffffffffffffffff1673ffffffffffffffffffffffffffffffffffffffff163373ffffffffffffffffffffffffffffffffffffffff16146103c9576040517f08c379a00000000000000000000000000000000000000000000000000000000081526004016103c0906131da565b60405180910390fd5b60008060010160008373ffffffffffffffffffffffffffffffffffffffff1673ffffffffffffffffffffffffffffffffffffffff168152602001908152602001600020905060018160080160006101000a81548160ff0219169083151502179055507f18f58bb4a189d360c4871fc16337e02471e6f5adeb7c1e4db1bd21dec06c1bf660405161045890613246565b60405180910390a15050565b61046c612103565b600060010160003373ffffffffffffffffffffffffffffffffffffffff1673ffffffffffffffffffffffffffffffffffffffff168152602001908152602001600020604051806101600160405290816000820160009054906101000a900473ffffffffffffffffffffffffffffffffffffffff1673ffffffffffffffffffffffffffffffffffffffff1673ffffffffffffffffffffffffffffffffffffffff16815260200160018201805461052090612ef8565b80601f016020809104026020016040519081016040528092919081815260200182805461054c90612ef8565b80156105995780601f1061056e57610100808354040283529160200191610599565b820191906000526020600020905b81548152906001019060200180831161057c57829003601f168201915b505050505081526020016002820180546105b290612ef8565b80601f01602080910402602001604051908101604052809291908181526020018280546105de90612ef8565b801561062b5780601f106106005761010080835404028352916020019161062b565b820191906000526020600020905b81548152906001019060200180831161060e57829003601f168201915b5050505050815260200160038201805461064490612ef8565b80601f016020809104026020016040519081016040528092919081815260200182805461067090612ef8565b80156106bd5780601f10610692576101008083540402835291602001916106bd565b820191906000526020600020905b8154815290600101906020018083116106a057829003601f168201915b50505050508152602001600482015481526020016005820180546106e090612ef8565b80601f016020809104026020016040519081016040528092919081815260200182805461070c90612ef8565b80156107595780601f1061072e57610100808354040283529160200191610759565b820191906000526020600020905b81548152906001019060200180831161073c57829003601f168201915b5050505050815260200160068201805461077290612ef8565b80601f016020809104026020016040519081016040528092919081815260200182805461079e90612ef8565b80156107eb5780601f106107c0576101008083540402835291602001916107eb565b820191906000526020600020905b8154815290600101906020018083116107ce57829003601f168201915b5050505050815260200160078201805461080490612ef8565b80601f016020809104026020016040519081016040528092919081815260200182805461083090612ef8565b801561087d5780601f106108525761010080835404028352916020019161087d565b820191906000526020600020905b81548152906001019060200180831161086057829003601f168201915b505050505081526020016008820160009054906101000a900460ff161515151581526020016008820160019054906101000a900460ff16151515158152602001600982015481525050905090565b600581815481106108db57600080fd5b90600052602060002090600402016000915090508060000180546108fe90612ef8565b80601f016020809104026020016040519081016040528092919081815260200182805461092a90612ef8565b80156109775780601f1061094c57610100808354040283529160200191610977565b820191906000526020600020905b81548152906001019060200180831161095a57829003601f168201915b50505050509080600101805461098c90612ef8565b80601f01602080910402602001604051908101604052809291908181526020018280546109b890612ef8565b8015610a055780601f106109da57610100808354040283529160200191610a05565b820191906000526020600020905b8154815290600101906020018083116109e857829003601f168201915b505050505090806002018054610a1a90612ef8565b80601f0160208091040260200160405190810160405280929190818152602001828054610a4690612ef8565b8015610a935780601f10610a6857610100808354040283529160200191610a93565b820191906000526020600020905b815481529060010190602001808311610a7657829003601f168201915b5050505050908060030154905084565b60606000805b6000800180549050811015610f82576000806001016000806000018481548110610ad657610ad5612dce565b5b9060005260206000200160009054906101000a900473ffffffffffffffffffffffffffffffffffffffff1673ffffffffffffffffffffffffffffffffffffffff1673ffffffffffffffffffffffffffffffffffffffff168152602001908152602001600020604051806101600160405290816000820160009054906101000a900473ffffffffffffffffffffffffffffffffffffffff1673ffffffffffffffffffffffffffffffffffffffff1673ffffffffffffffffffffffffffffffffffffffff168152602001600182018054610bad90612ef8565b80601f0160208091040260200160405190810160405280929190818152602001828054610bd990612ef8565b8015610c265780601f10610bfb57610100808354040283529160200191610c26565b820191906000526020600020905b815481529060010190602001808311610c0957829003601f168201915b50505050508152602001600282018054610c3f90612ef8565b80601f0160208091040260200160405190810160405280929190818152602001828054610c6b90612ef8565b8015610cb85780601f10610c8d57610100808354040283529160200191610cb8565b820191906000526020600020905b815481529060010190602001808311610c9b57829003601f168201915b50505050508152602001600382018054610cd190612ef8565b80601f0160208091040260200160405190810160405280929190818152602001828054610cfd90612ef8565b8015610d4a5780601f10610d1f57610100808354040283529160200191610d4a565b820191906000526020600020905b815481529060010190602001808311610d2d57829003601f168201915b5050505050815260200160048201548152602001600582018054610d6d90612ef8565b80601f0160208091040260200160405190810160405280929190818152602001828054610d9990612ef8565b8015610de65780601f10610dbb57610100808354040283529160200191610de6565b820191906000526020600020905b815481529060010190602001808311610dc957829003601f168201915b50505050508152602001600682018054610dff90612ef8565b80601f0160208091040260200160405190810160405280929190818152602001828054610e2b90612ef8565b8015610e785780601f10610e4d57610100808354040283529160200191610e78565b820191906000526020600020905b815481529060010190602001808311610e5b57829003601f168201915b50505050508152602001600782018054610e9190612ef8565b80601f0160208091040260200160405190810160405280929190818152602001828054610ebd90612ef8565b8015610f0a5780601f10610edf57610100808354040283529160200191610f0a565b820191906000526020600020905b815481529060010190602001808311610eed57829003601f168201915b505050505081526020016008820160009054906101000a900460ff161515151581526020016008820160019054906101000a900460ff161515151581526020016009820154815250509050806101000151610f6e578280610f6a90613266565b9350505b508080610f7a90613266565b915050610aa9565b5060008167ffffffffffffffff811115610f9f57610f9e612890565b5b604051908082528060200260200182016040528015610fd857816020015b610fc5612103565b815260200190600190039081610fbd5790505b5090506000805b60008001805490508110156114d757600080600101600080600001848154811061100c5761100b612dce565b5b9060005260206000200160009054906101000a900473ffffffffffffffffffffffffffffffffffffffff1673ffffffffffffffffffffffffffffffffffffffff1673ffffffffffffffffffffffffffffffffffffffff168152602001908152602001600020604051806101600160405290816000820160009054906101000a900473ffffffffffffffffffffffffffffffffffffffff1673ffffffffffffffffffffffffffffffffffffffff1673ffffffffffffffffffffffffffffffffffffffff1681526020016001820180546110e390612ef8565b80601f016020809104026020016040519081016040528092919081815260200182805461110f90612ef8565b801561115c5780601f106111315761010080835404028352916020019161115c565b820191906000526020600020905b81548152906001019060200180831161113f57829003601f168201915b5050505050815260200160028201805461117590612ef8565b80601f01602080910402602001604051908101604052809291908181526020018280546111a190612ef8565b80156111ee5780601f106111c3576101008083540402835291602001916111ee565b820191906000526020600020905b8154815290600101906020018083116111d157829003601f168201915b5050505050815260200160038201805461120790612ef8565b80601f016020809104026020016040519081016040528092919081815260200182805461123390612ef8565b80156112805780601f1061125557610100808354040283529160200191611280565b820191906000526020600020905b81548152906001019060200180831161126357829003601f168201915b50505050508152602001600482015481526020016005820180546112a390612ef8565b80601f01602080910402602001604051908101604052809291908181526020018280546112cf90612ef8565b801561131c5780601f106112f15761010080835404028352916020019161131c565b820191906000526020600020905b8154815290600101906020018083116112ff57829003601f168201915b5050505050815260200160068201805461133590612ef8565b80601f016020809104026020016040519081016040528092919081815260200182805461136190612ef8565b80156113ae5780601f10611383576101008083540402835291602001916113ae565b820191906000526020600020905b81548152906001019060200180831161139157829003601f168201915b505050505081526020016007820180546113c790612ef8565b80601f01602080910402602001604051908101604052809291908181526020018280546113f390612ef8565b80156114405780601f1061141557610100808354040283529160200191611440565b820191906000526020600020905b81548152906001019060200180831161142357829003601f168201915b505050505081526020016008820160009054906101000a900460ff161515151581526020016008820160019054906101000a900460ff1615151515815260200160098201548152505090508061010001516114c357808484815181106114a9576114a8612dce565b5b602002602001018190525082806114bf90613266565b9350505b5080806114cf90613266565b915050610fdf565b5081935050505090565b6114e9612177565b60006005805490501415611532576040517f08c379a0000000000000000000000000000000000000000000000000000000008152600401611529906132fb565b60405180910390fd5b600561153c611bea565b8154811061154d5761154c612dce565b5b906000526020600020906004020160405180608001604052908160008201805461157690612ef8565b80601f01602080910402602001604051908101604052809291908181526020018280546115a290612ef8565b80156115ef5780601f106115c4576101008083540402835291602001916115ef565b820191906000526020600020905b8154815290600101906020018083116115d257829003601f168201915b5050505050815260200160018201805461160890612ef8565b80601f016020809104026020016040519081016040528092919081815260200182805461163490612ef8565b80156116815780601f1061165657610100808354040283529160200191611681565b820191906000526020600020905b81548152906001019060200180831161166457829003601f168201915b5050505050815260200160028201805461169a90612ef8565b80601f01602080910402602001604051908101604052809291908181526020018280546116c690612ef8565b80156117135780601f106116e857610100808354040283529160200191611713565b820191906000526020600020905b8154815290600101906020018083116116f657829003601f168201915b50505050508152602001600382015481525050905090565b600033905060006040518061016001604052808373ffffffffffffffffffffffffffffffffffffffff1681526020018981526020018881526020018781526020018681526020018581526020018481526020016040518060400160405280600481526020017f75736572000000000000000000000000000000000000000000000000000000008152508152602001600015158152602001600015158152602001600081525090506117dc8282611c72565b7fe9c3adb2c857822b3bd74ee8d8e88f0638caa4b5c51b9ff223b21f7dd3d375648160405161180b9190612528565b60405180910390a15050505050505050565b60606005805480602002602001604051908101604052809291908181526020016000905b82821015611a33578382906000526020600020906004020160405180608001604052908160008201805461187490612ef8565b80601f01602080910402602001604051908101604052809291908181526020018280546118a090612ef8565b80156118ed5780601f106118c2576101008083540402835291602001916118ed565b820191906000526020600020905b8154815290600101906020018083116118d057829003601f168201915b5050505050815260200160018201805461190690612ef8565b80601f016020809104026020016040519081016040528092919081815260200182805461193290612ef8565b801561197f5780601f106119545761010080835404028352916020019161197f565b820191906000526020600020905b81548152906001019060200180831161196257829003601f168201915b5050505050815260200160028201805461199890612ef8565b80601f01602080910402602001604051908101604052809291908181526020018280546119c490612ef8565b8015611a115780601f106119e657610100808354040283529160200191611a11565b820191906000526020600020905b8154815290600101906020018083116119f457829003601f168201915b5050505050815260200160038201548152505081526020019060010190611841565b50505050905090565b600460009054906101000a900473ffffffffffffffffffffffffffffffffffffffff1673ffffffffffffffffffffffffffffffffffffffff163373ffffffffffffffffffffffffffffffffffffffff1614611acc576040517f08c379a0000000000000000000000000000000000000000000000000000000008152600401611ac390613367565b60405180910390fd5b60056040518060800160405280858152602001848152602001838152602001600081525090806001815401808255809150506001900390600052602060002090600402016000909190919091506000820151816000019080519060200190611b3592919061219f565b506020820151816001019080519060200190611b5292919061219f565b506040820151816002019080519060200190611b6f92919061219f565b506060820151816003015550507f0fb7a99cfa335704db4e522b1d31418e071085231ec0545926d75e1a6ead351160056001600580549050611bb19190613387565b81548110611bc257611bc1612dce565b5b9060005260206000209060040201604051611bdd9190613436565b60405180910390a1505050565b6000806000905060005b600580549050811015611c6d578160058281548110611c1657611c15612dce565b5b9060005260206000209060040201600301541115611c5a5760058181548110611c4257611c41612dce565b5b90600052602060002090600402016003015491508092505b8080611c6590613266565b915050611bf4565b505090565b600060030160008373ffffffffffffffffffffffffffffffffffffffff1673ffffffffffffffffffffffffffffffffffffffff16815260200190815260200160002060009054906101000a900460ff1615611e5e5780600060010160008473ffffffffffffffffffffffffffffffffffffffff1673ffffffffffffffffffffffffffffffffffffffff16815260200190815260200160002060008201518160000160006101000a81548173ffffffffffffffffffffffffffffffffffffffff021916908373ffffffffffffffffffffffffffffffffffffffff1602179055506020820151816001019080519060200190611d6d92919061219f565b506040820151816002019080519060200190611d8a92919061219f565b506060820151816003019080519060200190611da792919061219f565b506080820151816004015560a0820151816005019080519060200190611dce92919061219f565b5060c0820151816006019080519060200190611deb92919061219f565b5060e0820151816007019080519060200190611e0892919061219f565b506101008201518160080160006101000a81548160ff0219169083151502179055506101208201518160080160016101000a81548160ff02191690831515021790555061014082015181600901559050506120ff565b6001600060030160008473ffffffffffffffffffffffffffffffffffffffff1673ffffffffffffffffffffffffffffffffffffffff16815260200190815260200160002060006101000a81548160ff02191690831515021790555080600060010160008473ffffffffffffffffffffffffffffffffffffffff1673ffffffffffffffffffffffffffffffffffffffff16815260200190815260200160002060008201518160000160006101000a81548173ffffffffffffffffffffffffffffffffffffffff021916908373ffffffffffffffffffffffffffffffffffffffff1602179055506020820151816001019080519060200190611f5f92919061219f565b506040820151816002019080519060200190611f7c92919061219f565b506060820151816003019080519060200190611f9992919061219f565b506080820151816004015560a0820151816005019080519060200190611fc092919061219f565b5060c0820151816006019080519060200190611fdd92919061219f565b5060e0820151816007019080519060200190611ffa92919061219f565b506101008201518160080160006101000a81548160ff0219169083151502179055506101208201518160080160016101000a81548160ff02191690831515021790555061014082015181600901559050506000800180549050600060020160008473ffffffffffffffffffffffffffffffffffffffff1673ffffffffffffffffffffffffffffffffffffffff1681526020019081526020016000208190555060008001829080600181540180825580915050600190039060005260206000200160009091909190916101000a81548173ffffffffffffffffffffffffffffffffffffffff021916908373ffffffffffffffffffffffffffffffffffffffff1602179055505b5050565b604051806101600160405280600073ffffffffffffffffffffffffffffffffffffffff16815260200160608152602001606081526020016060815260200160008152602001606081526020016060815260200160608152602001600015158152602001600015158152602001600081525090565b6040518060800160405280606081526020016060815260200160608152602001600081525090565b8280546121ab90612ef8565b90600052602060002090601f0160209004810192826121cd5760008555612214565b82601f106121e657805160ff1916838001178555612214565b82800160010185558215612214579182015b828111156122135782518255916020019190600101906121f8565b5b5090506122219190612225565b5090565b5b8082111561223e576000816000905550600101612226565b5090565b6000604051905090565b600080fd5b600080fd5b6000819050919050565b61226981612256565b811461227457600080fd5b50565b60008135905061228681612260565b92915050565b6000602082840312156122a2576122a161224c565b5b60006122b084828501612277565b91505092915050565b600073ffffffffffffffffffffffffffffffffffffffff82169050919050565b60006122e4826122b9565b9050919050565b6122f4816122d9565b81146122ff57600080fd5b50565b600081359050612311816122eb565b92915050565b60006020828403121561232d5761232c61224c565b5b600061233b84828501612302565b91505092915050565b61234d816122d9565b82525050565b600081519050919050565b600082825260208201905092915050565b60005b8381101561238d578082015181840152602081019050612372565b8381111561239c576000848401525b50505050565b6000601f19601f8301169050919050565b60006123be82612353565b6123c8818561235e565b93506123d881856020860161236f565b6123e1816123a2565b840191505092915050565b6123f581612256565b82525050565b60008115159050919050565b612410816123fb565b82525050565b60006101608301600083015161242f6000860182612344565b506020830151848203602086015261244782826123b3565b9150506040830151848203604086015261246182826123b3565b9150506060830151848203606086015261247b82826123b3565b915050608083015161249060808601826123ec565b5060a083015184820360a08601526124a882826123b3565b91505060c083015184820360c08601526124c282826123b3565b91505060e083015184820360e08601526124dc82826123b3565b9150506101008301516124f3610100860182612407565b50610120830151612508610120860182612407565b5061014083015161251d6101408601826123ec565b508091505092915050565b600060208201905081810360008301526125428184612416565b905092915050565b600082825260208201905092915050565b600061256682612353565b612570818561254a565b935061258081856020860161236f565b612589816123a2565b840191505092915050565b61259d81612256565b82525050565b600060808201905081810360008301526125bd818761255b565b905081810360208301526125d1818661255b565b905081810360408301526125e5818561255b565b90506125f46060830184612594565b95945050505050565b600081519050919050565b600082825260208201905092915050565b6000819050602082019050919050565b6000610160830160008301516126426000860182612344565b506020830151848203602086015261265a82826123b3565b9150506040830151848203604086015261267482826123b3565b9150506060830151848203606086015261268e82826123b3565b91505060808301516126a360808601826123ec565b5060a083015184820360a08601526126bb82826123b3565b91505060c083015184820360c08601526126d582826123b3565b91505060e083015184820360e08601526126ef82826123b3565b915050610100830151612706610100860182612407565b5061012083015161271b610120860182612407565b506101408301516127306101408601826123ec565b508091505092915050565b60006127478383612629565b905092915050565b6000602082019050919050565b6000612767826125fd565b6127718185612608565b93508360208202850161278385612619565b8060005b858110156127bf57848403895281516127a0858261273b565b94506127ab8361274f565b925060208a01995050600181019050612787565b50829750879550505050505092915050565b600060208201905081810360008301526127eb818461275c565b905092915050565b6000608083016000830151848203600086015261281082826123b3565b9150506020830151848203602086015261282a82826123b3565b9150506040830151848203604086015261284482826123b3565b915050606083015161285960608601826123ec565b508091505092915050565b6000602082019050818103600083015261287e81846127f3565b905092915050565b600080fd5b600080fd5b7f4e487b7100000000000000000000000000000000000000000000000000000000600052604160045260246000fd5b6128c8826123a2565b810181811067ffffffffffffffff821117156128e7576128e6612890565b5b80604052505050565b60006128fa612242565b905061290682826128bf565b919050565b600067ffffffffffffffff82111561292657612925612890565b5b61292f826123a2565b9050602081019050919050565b82818337600083830152505050565b600061295e6129598461290b565b6128f0565b90508281526020810184848401111561297a5761297961288b565b5b61298584828561293c565b509392505050565b600082601f8301126129a2576129a1612886565b5b81356129b284826020860161294b565b91505092915050565b60008060008060008060c087890312156129d8576129d761224c565b5b600087013567ffffffffffffffff8111156129f6576129f5612251565b5b612a0289828a0161298d565b965050602087013567ffffffffffffffff811115612a2357612a22612251565b5b612a2f89828a0161298d565b955050604087013567ffffffffffffffff811115612a5057612a4f612251565b5b612a5c89828a0161298d565b9450506060612a6d89828a01612277565b935050608087013567ffffffffffffffff811115612a8e57612a8d612251565b5b612a9a89828a0161298d565b92505060a087013567ffffffffffffffff811115612abb57612aba612251565b5b612ac789828a0161298d565b9150509295509295509295565b600081519050919050565b600082825260208201905092915050565b6000819050602082019050919050565b60006080830160008301518482036000860152612b1d82826123b3565b91505060208301518482036020860152612b3782826123b3565b91505060408301518482036040860152612b5182826123b3565b9150506060830151612b6660608601826123ec565b508091505092915050565b6000612b7d8383612b00565b905092915050565b6000602082019050919050565b6000612b9d82612ad4565b612ba78185612adf565b935083602082028501612bb985612af0565b8060005b85811015612bf55784840389528151612bd68582612b71565b9450612be183612b85565b925060208a01995050600181019050612bbd565b50829750879550505050505092915050565b60006020820190508181036000830152612c218184612b92565b905092915050565b600080600060608486031215612c4257612c4161224c565b5b600084013567ffffffffffffffff811115612c6057612c5f612251565b5b612c6c8682870161298d565b935050602084013567ffffffffffffffff811115612c8d57612c8c612251565b5b612c998682870161298d565b925050604084013567ffffffffffffffff811115612cba57612cb9612251565b5b612cc68682870161298d565b9150509250925092565b7f596f7520617265206e6f7420656c696769626c6520746f206769766520766f7460008201527f652e000000000000000000000000000000000000000000000000000000000000602082015250565b6000612d2c60228361254a565b9150612d3782612cd0565b604082019050919050565b60006020820190508181036000830152612d5b81612d1f565b9050919050565b7f596f752061726520616c726561647920766f7465642e00000000000000000000600082015250565b6000612d9860168361254a565b9150612da382612d62565b602082019050919050565b60006020820190508181036000830152612dc781612d8b565b9050919050565b7f4e487b7100000000000000000000000000000000000000000000000000000000600052603260045260246000fd5b7f4e487b7100000000000000000000000000000000000000000000000000000000600052601160045260246000fd5b6000612e3782612256565b9150612e4283612256565b9250827fffffffffffffffffffffffffffffffffffffffffffffffffffffffffffffffff03821115612e7757612e76612dfd565b5b828201905092915050565b60008160001c9050919050565b600073ffffffffffffffffffffffffffffffffffffffff82169050919050565b6000612ec2612ebd83612e82565b612e8f565b9050919050565b7f4e487b7100000000000000000000000000000000000000000000000000000000600052602260045260246000fd5b60006002820490506001821680612f1057607f821691505b60208210811415612f2457612f23612ec9565b5b50919050565b60008190508160005260206000209050919050565b60008154612f4c81612ef8565b612f56818661235e565b94506001821660008114612f715760018114612f8357612fb6565b60ff1983168652602086019350612fb6565b612f8c85612f2a565b60005b83811015612fae57815481890152600182019150602081019050612f8f565b808801955050505b50505092915050565b6000819050919050565b6000612fdc612fd783612e82565b612fbf565b9050919050565b600060ff82169050919050565b6000613003612ffe83612e82565b612fe3565b9050919050565b60008160081c9050919050565b600061302a6130258361300a565b612fe3565b9050919050565b60006101608301600080840154905061304981612eaf565b6130566000870182612344565b5060018401858303602087015261306d8382612f3f565b9250506002840185830360408701526130868382612f3f565b92505060038401858303606087015261309f8382612f3f565b925050600484015490506130b281612fc9565b6130bf60808701826123ec565b506005840185830360a08701526130d68382612f3f565b9250506006840185830360c08701526130ef8382612f3f565b9250506007840185830360e08701526131088382612f3f565b9250506008840154905061311b81612ff0565b613129610100870182612407565b5061313381613017565b613141610120870182612407565b506009840154905061315281612fc9565b6131606101408701826123ec565b50819250505092915050565b600060208201905081810360008301526131868184613031565b905092915050565b7f4f6e6c792061646d696e2063616e2076657269667920766f7465720000000000600082015250565b60006131c4601b8361254a565b91506131cf8261318e565b602082019050919050565b600060208201905081810360008301526131f3816131b7565b9050919050565b7f566f746572207570646174652073756363657373000000000000000000000000600082015250565b600061323060148361254a565b915061323b826131fa565b602082019050919050565b6000602082019050818103600083015261325f81613223565b9050919050565b600061327182612256565b91507fffffffffffffffffffffffffffffffffffffffffffffffffffffffffffffffff8214156132a4576132a3612dfd565b5b600182019050919050565b7f5468657265206973206e6f207465616d73206164646564207965740000000000600082015250565b60006132e5601b8361254a565b91506132f0826132af565b602082019050919050565b60006020820190508181036000830152613314816132d8565b9050919050565b7f4f6e6c792061646d696e2063616e20616464206e6577207465616d7300000000600082015250565b6000613351601c8361254a565b915061335c8261331b565b602082019050919050565b6000602082019050818103600083015261338081613344565b9050919050565b600061339282612256565b915061339d83612256565b9250828210156133b0576133af612dfd565b5b828203905092915050565b600060808301600080840185830360008701526133d88382612f3f565b9250506001840185830360208701526133f18382612f3f565b92505060028401858303604087015261340a8382612f3f565b9250506003840154905061341d81612fc9565b61342a60608701826123ec565b50819250505092915050565b6000602082019050818103600083015261345081846133bb565b90509291505056fea2646970667358221220d1a8a42142018746ade853ad971954e923f5521e4bca2e5cb06e35a2ad6c08ac64736f6c634300080a0033",
  "immutableReferences": {},
  "source": "// SPDX-License-Identifier: GPL-3.0\npragma solidity >=0.7.0 <0.9.0;\n\ncontract evoting {\n\n    struct Voter {\n        address id;\n        string fname;\n        string lname;\n        string email;\n        uint256 dob;\n        string mobile;\n        string uidai;\n        string role;\n        bool verified;\n        bool voted;\n        uint256 vote;\n    }\n\n    struct VoterMap {\n        address[] keys;\n        mapping(address => Voter) values;\n        mapping(address => uint256) indexOf;\n        mapping(address => bool) inserted;\n    }\n\n    VoterMap private voterMap;\n\n\n    function voterMapSet(address key, Voter memory val) private {\n        if (voterMap.inserted[key]) {\n            voterMap.values[key] = val;\n        } else {\n            voterMap.inserted[key] = true;\n            voterMap.values[key] = val;\n            voterMap.indexOf[key] = voterMap.keys.length;\n            voterMap.keys.push(key);\n        }\n    }\n\n    function voterMapRemove(address key) private {\n        if (!voterMap.inserted[key]) {\n            return;\n        }\n        delete voterMap.inserted[key];\n        delete voterMap.values[key];\n\n        uint256 index = voterMap.indexOf[key];\n        uint256 lastIndex = voterMap.keys.length - 1;\n        address lastKey = voterMap.keys[lastIndex];\n\n        voterMap.indexOf[lastKey] = index;\n        delete voterMap.indexOf[key];\n        voterMap.keys[index] = lastKey;\n        voterMap.keys.pop();\n    }\n\n    address admin;\n\n    struct Team {\n        string representative;\n        string description;\n        string teamName;\n        uint256 voteCount;\n    }\n\n    Team[] public teams;\n    event AddVoter(Voter _voter);\n    constructor(\n        string memory fname,\n        string memory lname,\n        string memory email,\n        uint256 dob,\n        string memory mobile,\n        string memory uidai\n    ) {\n        admin = msg.sender;\n        Voter memory voter = Voter(\n            admin,\n            fname,\n            lname,\n            email,\n            dob,\n            mobile,\n            uidai,\n            \"admin\",\n            true,\n            false,\n            0\n        );\n        voterMapSet(admin, voter);\n    }\n\n    event AddTeam(Team _team);\n\n    function addTeam(\n        string memory representative,\n        string memory description,\n        string memory teamName\n    ) public {\n        require(msg.sender == admin, \"Only admin can add new teams\");\n        teams.push(\n            Team({\n                representative: representative,\n                description: description,\n                teamName: teamName,\n                voteCount: 0\n            })\n        );\n        emit AddTeam(teams[teams.length - 1]);\n    }\n\n    event Register(Voter _voter);\n\n    function register(\n        string memory fname,\n        string memory lname,\n        string memory email,\n        uint256 dob,\n        string memory mobile,\n        string memory uidai\n    ) public {\n        address sender = msg.sender;\n        Voter memory voter = Voter(\n            sender,\n            fname,\n            lname,\n            email,\n            dob,\n            mobile,\n            uidai,\n            \"user\",\n            false,\n            false,\n            0\n        );\n        voterMapSet(sender, voter);\n        emit Register(voter);\n    }\n\n    function getTeams() public view returns (Team[] memory) {\n        return teams;\n    }\n\n    function getVoter() public view returns (Voter memory) {\n        return voterMap.values[msg.sender];\n    }\n\n    event Vote(Voter _voter);\n\n    function vote(uint256 to) public {\n        Voter storage voter = voterMap.values[msg.sender];\n\n        require(voter.verified, \"You are not eligible to give vote.\");\n        require(!voter.voted, \"You are already voted.\");\n\n        voter.voted = true;\n        voter.vote = to;\n        teams[to].voteCount += 1;\n        emit Vote(voter);\n    }\n\n    function getUnverifiedVoter() public view returns (Voter[] memory) {\n        uint256 counter = 0;\n\n        for (uint256 i = 0; i < voterMap.keys.length; i++) {\n            Voter memory item = voterMap.values[voterMap.keys[i]];\n            if (!item.verified) counter++;\n        }\n\n        Voter[] memory voters = new Voter[](counter);\n        uint256 j = 0;\n        for (uint256 i = 0; i < voterMap.keys.length; i++) {\n            Voter memory item = voterMap.values[voterMap.keys[i]];\n            if (!item.verified) {\n                voters[j] = item;\n                j++;\n            }\n        }\n        return voters;\n    }\n\n    event VerifyVoter(string _message);\n\n    function verifyVoter(address _address) public {\n        require(msg.sender == admin, \"Only admin can verify voter\");\n        Voter storage voter = voterMap.values[_address];\n        voter.verified = true;\n        emit VerifyVoter(\"Voter update success\");\n    }\n\n    function getWinnerIndex() private view returns (uint256 _winner) {\n        uint256 maxVote = 0;\n        for (uint256 i = 0; i < teams.length; i++) {\n            if (teams[i].voteCount > maxVote) {\n                maxVote = teams[i].voteCount;\n                _winner = i;\n            }\n        }\n    }\n\n    function getWinner() public view returns (Team memory _winner) {\n        require(teams.length != 0, \"There is no teams added yet\");\n        _winner = teams[getWinnerIndex()];\n    }\n}\n",
  "sourcePath": "D:\\BLOCKCHAIN VOTING COLLEGE PROJECT\\contracts\\EVoting.sol",
  "compiler": {
    "name": "solc",
    "version": "0.8.10+commit.fc410830.Emscripten.clang"
  },
  "schemaVersion": "3.4.10",
  "updatedAt": "2022-09-21T06:36:46.211Z",
  "networkType": "ethereum",
  "devdoc": {
    "kind": "dev",
    "methods": {},
    "version": 1
  },
  "userdoc": {
    "kind": "user",
    "methods": {},
    "version": 1
  }
}